:030000000208AD46
:0C08AD00787FE4F6D8FD75810A020896F9
:0A08B90068656C6C6F202E2E2E0077
:10089600759850758920758DFDD28E7BFF7A087903
:0708A600B912086E02080000
:10086E008B088A09890AAB08AA09A90A12083F60EF
:10087E0016050AE50A7002050914F912083FF599E2
:08088E003099FDC29980DF22C0
:10080000900000AF82AE83EE3395E0FDFC7B207A52
:10081000A179077800D31208584023E4F583F582C4
:10082000AF82AE83EE3395E0FDFC7B207AA17907A1
:0E0830007800D31208584003A380E5A380C5CA
:01083E002297
:10083F00BB010689828A83E0225002E722BBFE02B7
:09084F00E32289828A83E49322EA
:10085800EB9FF5F0EA9E42F0E99D42F0EC6480C817
:0608680064809845F022B7
:00000001FF
