:030000000208E50E
:0C08E500787FE4F6D8FD75810C0208361F
:0908F10068656C6C6F6F0D0A0064
:10086B007F387E001208C91208937F017E001208A0
:10087B00C91208937F807E001208C91208937F0C5F
:08088B007E001208C902089367
:0E08C900D292C290C2918FA0120893C29222C6
:0E08D700D292D290C2918FA0120893C29222A8
:100800008B098A0A890BAB09AA0AA90B1208B060E6
:0108100024C3
:10081100050BE50B7002050A14F91208B0F50C304E
:10082100B3E3F599AF0C1208D73099FDD280C29984
:02083100C28083
:0308330080D1224F
:10089300E4FFFEE4FDFC0DBD00010CBC01F8BDF45A
:0C08A300F50FBF00010EBE01EABFF4E734
:0108AF002226
:10083600758920759850758DFDD28E12086B7F8054
:100846007E001208C97BFF7A0879F11208003098F9
:10085600FD859908C298AF081208D785089930997E
:05086600FDC29980E9CC
:1008B000BB010689828A83E0225002E722BBFE0246
:0908C000E32289828A83E4932279
:00000001FF
