:030000000208DF14
:0C08DF00787FE4F6D8FD75810B0208005C
:0908EB0068656C6C6F6F0D0A006A
:100865007F387E001208C312088D7F017E001208B2
:10087500C312088D7F807E001208C312088D7F0C7D
:080885007E001208C302088D79
:0E08C300D292C290C2918FA012088DC29222D2
:0E08D100D292D290C2918FA012088DC29222B4
:100835008B098A0A890BAB09AA0AA90B1208AAFF18
:10084500601D1208D1AB09050BE50BAA0A7002055C
:100855000A14F91208AAF5993099FDC29980D72290
:10088D00E4FFFEE4FDFC0DBD00010CBC01F8BDF460
:0C089D00F50FBF00010EBE13EABF88E794
:0108A900222C
:10080000758920759850758DFDD28E1208657F8090
:100810007E001208C37BFF7A0879EB120835309806
:10082000FD859908C298AF081208D18508993099BA
:05083000FDC29980E902
:1008AA00BB010689828A83E0225002E722BBFE024C
:0908BA00E32289828A83E493227F
:00000001FF
